{
  "address": "0xd5170cE517c4b1E8B09b1Ed0366a1676A4BAA37b",
  "abi": [
    {
      "anonymous": false,
      "inputs": [
        {
          "indexed": false,
          "internalType": "string",
          "name": "symbol",
          "type": "string"
        },
        {
          "indexed": false,
          "internalType": "address",
          "name": "reciever",
          "type": "address"
        },
        {
          "indexed": false,
          "internalType": "uint256",
          "name": "amount",
          "type": "uint256"
        }
      ],
      "name": "Claim",
      "type": "event"
    },
    {
      "anonymous": false,
      "inputs": [
        {
          "indexed": false,
          "internalType": "string",
          "name": "sybmol",
          "type": "string"
        },
        {
          "indexed": false,
          "internalType": "address",
          "name": "token",
          "type": "address"
        }
      ],
      "name": "Create",
      "type": "event"
    },
    {
      "inputs": [
        {
          "internalType": "address",
          "name": "_owner",
          "type": "address"
        }
      ],
      "name": "addOwner",
      "outputs": [],
      "stateMutability": "nonpayable",
      "type": "function"
    },
    {
      "inputs": [],
      "name": "admin",
      "outputs": [
        {
          "internalType": "address",
          "name": "",
          "type": "address"
        }
      ],
      "stateMutability": "view",
      "type": "function"
    },
    {
      "inputs": [
        {
          "internalType": "string",
          "name": "_symbol",
          "type": "string"
        },
        {
          "internalType": "uint256",
          "name": "_amount",
          "type": "uint256"
        }
      ],
      "name": "claim",
      "outputs": [],
      "stateMutability": "nonpayable",
      "type": "function"
    },
    {
      "inputs": [
        {
          "internalType": "string",
          "name": "_symbol",
          "type": "string"
        }
      ],
      "name": "create",
      "outputs": [],
      "stateMutability": "nonpayable",
      "type": "function"
    },
    {
      "inputs": [
        {
          "internalType": "string",
          "name": "_symbol",
          "type": "string"
        }
      ],
      "name": "getTokenAddress",
      "outputs": [
        {
          "internalType": "address",
          "name": "token",
          "type": "address"
        }
      ],
      "stateMutability": "view",
      "type": "function"
    },
    {
      "inputs": [],
      "name": "getTokens",
      "outputs": [
        {
          "internalType": "string[]",
          "name": "symbols",
          "type": "string[]"
        },
        {
          "internalType": "address[]",
          "name": "addresses",
          "type": "address[]"
        }
      ],
      "stateMutability": "view",
      "type": "function"
    },
    {
      "inputs": [
        {
          "internalType": "address",
          "name": "_owner",
          "type": "address"
        }
      ],
      "name": "isOwner",
      "outputs": [
        {
          "internalType": "bool",
          "name": "",
          "type": "bool"
        }
      ],
      "stateMutability": "view",
      "type": "function"
    },
    {
      "inputs": [
        {
          "internalType": "address",
          "name": "_owner",
          "type": "address"
        }
      ],
      "name": "removeOwner",
      "outputs": [],
      "stateMutability": "nonpayable",
      "type": "function"
    }
  ],
  "transactionHash": "0xe7a6c5ce1a319033ddef4c72034cf47086e0ebba26edaffd8b4744aa6e45d5f6",
  "args": [],
  "solcInputHash": "8e341431af2fffcdbeb26a6bb5ab5b07",
  "bytecode": "0x6080604052600080546001600160a01b0319163317905534801561002257600080fd5b50336000908152600160208190526040909120805460ff19169091179055612bd88061004f6000396000f3fe60806040523480156200001157600080fd5b5060043610620000935760003560e01c8063b6a46b3b1162000062578063b6a46b3b1462000126578063c4091236146200013d578063e64d2fb4146200016d578063f851a440146200018457600080fd5b8063173825d914620000985780632f54bf6e14620000b15780637065cb4814620000f5578063aa6ca808146200010c575b600080fd5b620000af620000a936600462000811565b62000198565b005b620000e0620000c236600462000811565b6001600160a01b031660009081526001602052604090205460ff1690565b60405190151581526020015b60405180910390f35b620000af6200010636600462000811565b62000206565b6200011662000276565b604051620000ec9291906200098f565b620000af6200013736600462000841565b62000472565b620001546200014e36600462000841565b62000634565b6040516001600160a01b039091168152602001620000ec565b620000af6200017e366004620008fc565b62000667565b60005462000154906001600160a01b031681565b6000546001600160a01b03163314620001e55760405162461bcd60e51b815260206004820152600a60248201526937b7363c9030b236b4b760b11b60448201526064015b60405180910390fd5b6001600160a01b03166000908152600160205260409020805460ff19169055565b6000546001600160a01b031633146200024f5760405162461bcd60e51b815260206004820152600a60248201526937b7363c9030b236b4b760b11b6044820152606401620001dc565b6001600160a01b03166000908152600160208190526040909120805460ff19169091179055565b600354606090819067ffffffffffffffff811115620002a557634e487b7160e01b600052604160045260246000fd5b604051908082528060200260200182016040528015620002da57816020015b6060815260200190600190039081620002c45790505b5060035490925067ffffffffffffffff8111156200030857634e487b7160e01b600052604160045260246000fd5b60405190808252806020026020018201604052801562000332578160200160208202803683370190505b50905060005b6003548110156200046d576000600382815481106200036757634e487b7160e01b600052603260045260246000fd5b6000918252602082200154604080516395d89b4160e01b815290516001600160a01b03909216935083926395d89b4192600480840193829003018186803b158015620003b257600080fd5b505afa158015620003c7573d6000803e3d6000fd5b505050506040513d6000823e601f3d908101601f19168201604052620003f1919081019062000880565b8483815181106200041257634e487b7160e01b600052603260045260246000fd5b6020026020010181905250808383815181106200043f57634e487b7160e01b600052603260045260246000fd5b6001600160a01b03909216602092830291909101909101525080620004648162000b3a565b91505062000338565b509091565b3360009081526001602052604090205460ff16620004c05760405162461bcd60e51b815260206004820152600a60248201526937b7363c9037bbb732b960b11b6044820152606401620001dc565b60006001600160a01b0316600282604051620004dd919062000971565b908152604051908190036020019020546001600160a01b031614620005395760405162461bcd60e51b81526020600482015260116024820152701d1bdad95b881a185cc818dc99585d1959607a1b6044820152606401620001dc565b6000816040516200054a90620007ac565b62000556919062000a37565b604051809103906000f08015801562000573573d6000803e3d6000fd5b5090508060028360405162000589919062000971565b90815260405190819003602001812080546001600160a01b039384166001600160a01b031991821617909155600380546001810182556000919091527fc2575a0e9e593c00f959f8c92f12db2869c3395a3b0502d05e2516446f71f85b01805493851693909116929092179091557fb27bb48959e661e2ff2784657a44fb5baa6c91210a608d6f656f51820a9bb5289062000628908490849062000a4c565b60405180910390a15050565b600060028260405162000648919062000971565b908152604051908190036020019020546001600160a01b031692915050565b60006001600160a01b031660028360405162000684919062000971565b908152604051908190036020019020546001600160a01b03161415620006e55760405162461bcd60e51b81526020600482015260156024820152741d1bdad95b881a185cc81b9bdd0818dc99585d1959605a1b6044820152606401620001dc565b6000600283604051620006f9919062000971565b908152604051908190036020018120546340c10f1960e01b8252336004830152602482018490526001600160a01b0316915081906340c10f1990604401600060405180830381600087803b1580156200075157600080fd5b505af115801562000766573d6000803e3d6000fd5b505050507f72f6bf1bec276ec35226dd14c6846b2a9e3932751965ef5a606e3fb3b7572dc58333846040516200079f9392919062000a78565b60405180910390a1505050565b61202a8062000b7983390190565b600082601f830112620007cb578081fd5b8135620007e2620007dc8262000adc565b62000aa8565b818152846020838601011115620007f7578283fd5b816020850160208301379081016020019190915292915050565b60006020828403121562000823578081fd5b81356001600160a01b03811681146200083a578182fd5b9392505050565b60006020828403121562000853578081fd5b813567ffffffffffffffff8111156200086a578182fd5b6200087884828501620007ba565b949350505050565b60006020828403121562000892578081fd5b815167ffffffffffffffff811115620008a9578182fd5b8201601f81018413620008ba578182fd5b8051620008cb620007dc8262000adc565b818152856020838501011115620008e0578384fd5b620008f382602083016020860162000b07565b95945050505050565b600080604083850312156200090f578081fd5b823567ffffffffffffffff81111562000926578182fd5b6200093485828601620007ba565b95602094909401359450505050565b600081518084526200095d81602086016020860162000b07565b601f01601f19169290920160200192915050565b600082516200098581846020870162000b07565b9190910192915050565b6000604082016040835280855180835260608501915060608160051b86010192506020808801855b83811015620009e957605f19888703018552620009d686835162000943565b95509382019390820190600101620009b7565b505085840381870152865180855287820194820193509150845b8281101562000a2a5784516001600160a01b03168452938101939281019260010162000a03565b5091979650505050505050565b6020815260006200083a602083018462000943565b60408152600062000a61604083018562000943565b905060018060a01b03831660208301529392505050565b60608152600062000a8d606083018662000943565b6001600160a01b039490941660208301525060400152919050565b604051601f8201601f1916810167ffffffffffffffff8111828210171562000ad45762000ad462000b62565b604052919050565b600067ffffffffffffffff82111562000af95762000af962000b62565b50601f01601f191660200190565b60005b8381101562000b2457818101518382015260200162000b0a565b8381111562000b34576000848401525b50505050565b600060001982141562000b5b57634e487b7160e01b81526011600452602481fd5b5060010190565b634e487b7160e01b600052604160045260246000fdfe6101206040523480156200001257600080fd5b506040516200202a3803806200202a833981016040819052620000359162000387565b60408051808201825260128082527126b2ba34b9902832b3b3b2b2102a37b5b2b760711b60208084018290528451808601865260018152603160f81b81830152855180870190965283865290850191825292939185916200009a9160059190620002e1565b508051620000b0906006906020840190620002e1565b5050825160209384012082519284019290922060c083815260e08290524660a0818152604080517f8b73c3c69bb8fe3d512ecc4cf759cc79239f7b179b0ffacaa9a75d522b39400f818a018190528183019890985260608101959095526080808601939093523085830152805180860390920182529390920190925280519401939093209092526101005250620001496000336200017c565b620001757f9f2df0fed2c77648de5860a4cc508cd0818c85b8b8a1ab4ceeef8d981c8956a6336200017c565b50620004b0565b620001938282620001bf60201b620009701760201c565b6000828152600160209081526040909120620001ba9183906200097a620001cf821b17901c565b505050565b620001cb8282620001ef565b5050565b6000620001e6836001600160a01b0384166200028f565b90505b92915050565b6000828152602081815260408083206001600160a01b038516845290915290205460ff16620001cb576000828152602081815260408083206001600160a01b03851684529091529020805460ff191660011790556200024b3390565b6001600160a01b0316816001600160a01b0316837f2f8788117e7eff1d82e926ec794901d17c78024a50270940304540a733656f0d60405160405180910390a45050565b6000818152600183016020526040812054620002d857508154600181810184556000848152602080822090930184905584548482528286019093526040902091909155620001e9565b506000620001e9565b828054620002ef906200045d565b90600052602060002090601f0160209004810192826200031357600085556200035e565b82601f106200032e57805160ff19168380011785556200035e565b828001600101855582156200035e579182015b828111156200035e57825182559160200191906001019062000341565b506200036c92915062000370565b5090565b5b808211156200036c576000815560010162000371565b600060208083850312156200039a578182fd5b82516001600160401b0380821115620003b1578384fd5b818501915085601f830112620003c5578384fd5b815181811115620003da57620003da6200049a565b604051601f8201601f19908116603f011681019083821181831017156200040557620004056200049a565b8160405282815288868487010111156200041d578687fd5b8693505b8284101562000440578484018601518185018701529285019262000421565b828411156200045157868684830101525b98975050505050505050565b600181811c908216806200047257607f821691505b602082108114156200049457634e487b7160e01b600052602260045260246000fd5b50919050565b634e487b7160e01b600052604160045260246000fd5b60805160a05160c05160e05161010051611b35620004f56000396000610d3401526000610d8301526000610d5e01526000610ce201526000610d0b0152611b356000f3fe608060405234801561001057600080fd5b506004361061018e5760003560e01c80637ecebe00116100de578063a9059cbb11610097578063d539139311610071578063d539139314610366578063d547741f1461038d578063dd62ed3e146103a0578063e63ab1e9146103d957600080fd5b8063a9059cbb1461032d578063ca15c87314610340578063d505accf1461035357600080fd5b80637ecebe00146102b95780639010d07c146102cc57806391d14854146102f757806395d89b411461030a578063a217fddf14610312578063a457c2d71461031a57600080fd5b80632f2ff15d1161014b57806336568abe1161012557806336568abe14610257578063395093511461026a57806340c10f191461027d57806370a082311461029057600080fd5b80632f2ff15d1461022b578063313ce567146102405780633644e5151461024f57600080fd5b806301ffc9a71461019357806306fdde03146101bb578063095ea7b3146101d057806318160ddd146101e357806323b872dd146101f5578063248a9ca314610208575b600080fd5b6101a66101a136600461194d565b610400565b60405190151581526020015b60405180910390f35b6101c361042b565b6040516101b291906119ea565b6101a66101de3660046118c9565b6104bd565b6004545b6040519081526020016101b2565b6101a661020336600461181d565b6104d3565b6101e76102163660046118f2565b60009081526020819052604090206001015490565b61023e61023936600461190a565b610582565b005b604051601281526020016101b2565b6101e76105a9565b61023e61026536600461190a565b6105b8565b6101a66102783660046118c9565b6105da565b61023e61028b3660046118c9565b610616565b6101e761029e3660046117d1565b6001600160a01b031660009081526002602052604090205490565b6101e76102c73660046117d1565b61069a565b6102df6102da36600461192c565b6106b8565b6040516001600160a01b0390911681526020016101b2565b6101a661030536600461190a565b6106d7565b6101c3610700565b6101e7600081565b6101a66103283660046118c9565b61070f565b6101a661033b3660046118c9565b6107a8565b6101e761034e3660046118f2565b6107b5565b61023e610361366004611858565b6107cc565b6101e77f9f2df0fed2c77648de5860a4cc508cd0818c85b8b8a1ab4ceeef8d981c8956a681565b61023e61039b36600461190a565b610966565b6101e76103ae3660046117eb565b6001600160a01b03918216600090815260036020908152604080832093909416825291909152205490565b6101e77f65d7a28e3265b37a6474929f336521b332c1681b933f6cb9f3376673440d862a81565b60006001600160e01b03198216635a05180f60e01b148061042557506104258261098f565b92915050565b60606005805461043a90611aae565b80601f016020809104026020016040519081016040528092919081815260200182805461046690611aae565b80156104b35780601f10610488576101008083540402835291602001916104b3565b820191906000526020600020905b81548152906001019060200180831161049657829003601f168201915b5050505050905090565b60006104ca3384846109c4565b50600192915050565b60006104e0848484610ae8565b6001600160a01b03841660009081526003602090815260408083203384529091529020548281101561056a5760405162461bcd60e51b815260206004820152602860248201527f45524332303a207472616e7366657220616d6f756e74206578636565647320616044820152676c6c6f77616e636560c01b60648201526084015b60405180910390fd5b61057785338584036109c4565b506001949350505050565b61058c8282610cb8565b60008281526001602052604090206105a4908261097a565b505050565b60006105b3610cde565b905090565b6105c28282610dd1565b60008281526001602052604090206105a49082610e4b565b3360008181526003602090815260408083206001600160a01b038716845290915281205490916104ca918590610611908690611a1d565b6109c4565b6106407f9f2df0fed2c77648de5860a4cc508cd0818c85b8b8a1ab4ceeef8d981c8956a6336106d7565b61068c5760405162461bcd60e51b815260206004820152601d60248201527f6d7573742068617665206d696e74657220726f6c6520746f206d696e740000006044820152606401610561565b6106968282610e60565b5050565b6001600160a01b038116600090815260076020526040812054610425565b60008281526001602052604081206106d09083610f3f565b9392505050565b6000918252602082815260408084206001600160a01b0393909316845291905290205460ff1690565b60606006805461043a90611aae565b3360009081526003602090815260408083206001600160a01b0386168452909152812054828110156107915760405162461bcd60e51b815260206004820152602560248201527f45524332303a2064656372656173656420616c6c6f77616e63652062656c6f77604482015264207a65726f60d81b6064820152608401610561565b61079e33858584036109c4565b5060019392505050565b60006104ca338484610ae8565b600081815260016020526040812061042590610f4b565b8342111561081c5760405162461bcd60e51b815260206004820152601d60248201527f45524332305065726d69743a206578706972656420646561646c696e650000006044820152606401610561565b6001600160a01b0387811660008181526007602090815260408083205481517f6e71edae12b1b97f4d1f60370fef10105fa2faae0126114a169c64845d6126c98185015280830195909552948b166060850152608084018a905260a084019490945260c08084018990528451808503909101815260e090930190935281519190920120906108a982610f55565b905060006108b982878787610fa3565b9050896001600160a01b0316816001600160a01b03161480156108e457506001600160a01b03811615155b6109305760405162461bcd60e51b815260206004820152601e60248201527f45524332305065726d69743a20696e76616c6964207369676e617475726500006044820152606401610561565b6001600160a01b038a1660009081526007602052604090208054600101905561095a8a8a8a6109c4565b50505050505050505050565b6105c28282610fcb565b6106968282610ff1565b60006106d0836001600160a01b038416611075565b60006001600160e01b03198216637965db0b60e01b148061042557506301ffc9a760e01b6001600160e01b0319831614610425565b6001600160a01b038316610a265760405162461bcd60e51b8152602060048201526024808201527f45524332303a20617070726f76652066726f6d20746865207a65726f206164646044820152637265737360e01b6064820152608401610561565b6001600160a01b038216610a875760405162461bcd60e51b815260206004820152602260248201527f45524332303a20617070726f766520746f20746865207a65726f206164647265604482015261737360f01b6064820152608401610561565b6001600160a01b0383811660008181526003602090815260408083209487168084529482529182902085905590518481527f8c5be1e5ebec7d5bd14f71427d1e84f3dd0314c0f7b2291e5b200ac8c7c3b925910160405180910390a3505050565b6001600160a01b038316610b4c5760405162461bcd60e51b815260206004820152602560248201527f45524332303a207472616e736665722066726f6d20746865207a65726f206164604482015264647265737360d81b6064820152608401610561565b6001600160a01b038216610bae5760405162461bcd60e51b815260206004820152602360248201527f45524332303a207472616e7366657220746f20746865207a65726f206164647260448201526265737360e81b6064820152608401610561565b6001600160a01b03831660009081526002602052604090205481811015610c265760405162461bcd60e51b815260206004820152602660248201527f45524332303a207472616e7366657220616d6f756e7420657863656564732062604482015265616c616e636560d01b6064820152608401610561565b6001600160a01b03808516600090815260026020526040808220858503905591851681529081208054849290610c5d908490611a1d565b92505081905550826001600160a01b0316846001600160a01b03167fddf252ad1be2c89b69c2b068fc378daa952ba7f163c4a11628f55a4df523b3ef84604051610ca991815260200190565b60405180910390a35b50505050565b600082815260208190526040902060010154610cd481336110c4565b6105a48383610ff1565b60007f0000000000000000000000000000000000000000000000000000000000000000461415610d2d57507f000000000000000000000000000000000000000000000000000000000000000090565b50604080517f00000000000000000000000000000000000000000000000000000000000000006020808301919091527f0000000000000000000000000000000000000000000000000000000000000000828401527f000000000000000000000000000000000000000000000000000000000000000060608301524660808301523060a0808401919091528351808403909101815260c0909201909252805191012090565b6001600160a01b0381163314610e415760405162461bcd60e51b815260206004820152602f60248201527f416363657373436f6e74726f6c3a2063616e206f6e6c792072656e6f756e636560448201526e103937b632b9903337b91039b2b63360891b6064820152608401610561565b6106968282611128565b60006106d0836001600160a01b03841661118d565b6001600160a01b038216610eb65760405162461bcd60e51b815260206004820152601f60248201527f45524332303a206d696e7420746f20746865207a65726f2061646472657373006044820152606401610561565b8060046000828254610ec89190611a1d565b90915550506001600160a01b03821660009081526002602052604081208054839290610ef5908490611a1d565b90915550506040518181526001600160a01b038316906000907fddf252ad1be2c89b69c2b068fc378daa952ba7f163c4a11628f55a4df523b3ef9060200160405180910390a35050565b60006106d083836112aa565b6000610425825490565b6000610425610f62610cde565b8360405161190160f01b6020820152602281018390526042810182905260009060620160405160208183030381529060405280519060200120905092915050565b6000806000610fb4878787876112e2565b91509150610fc1816113cf565b5095945050505050565b600082815260208190526040902060010154610fe781336110c4565b6105a48383611128565b610ffb82826106d7565b610696576000828152602081815260408083206001600160a01b03851684529091529020805460ff191660011790556110313390565b6001600160a01b0316816001600160a01b0316837f2f8788117e7eff1d82e926ec794901d17c78024a50270940304540a733656f0d60405160405180910390a45050565b60008181526001830160205260408120546110bc57508154600181810184556000848152602080822090930184905584548482528286019093526040902091909155610425565b506000610425565b6110ce82826106d7565b610696576110e6816001600160a01b031660146115d3565b6110f18360206115d3565b604051602001611102929190611975565b60408051601f198184030181529082905262461bcd60e51b8252610561916004016119ea565b61113282826106d7565b15610696576000828152602081815260408083206001600160a01b0385168085529252808320805460ff1916905551339285917ff6391f5c32d9c69d2a47ea670b442974b53935d1edc7fd64eb21e047a839171b9190a45050565b600081815260018301602052604081205480156112a05760006111b1600183611a54565b85549091506000906111c590600190611a54565b90508181146112465760008660000182815481106111f357634e487b7160e01b600052603260045260246000fd5b906000526020600020015490508087600001848154811061122457634e487b7160e01b600052603260045260246000fd5b6000918252602080832090910192909255918252600188019052604090208390555b855486908061126557634e487b7160e01b600052603160045260246000fd5b600190038181906000526020600020016000905590558560010160008681526020019081526020016000206000905560019350505050610425565b6000915050610425565b60008260000182815481106112cf57634e487b7160e01b600052603260045260246000fd5b9060005260206000200154905092915050565b6000807f7fffffffffffffffffffffffffffffff5d576e7357a4501ddfe92f46681b20a083111561131957506000905060036113c6565b8460ff16601b1415801561133157508460ff16601c14155b1561134257506000905060046113c6565b6040805160008082526020820180845289905260ff881692820192909252606081018690526080810185905260019060a0016020604051602081039080840390855afa158015611396573d6000803e3d6000fd5b5050604051601f1901519150506001600160a01b0381166113bf576000600192509250506113c6565b9150600090505b94509492505050565b60008160048111156113f157634e487b7160e01b600052602160045260246000fd5b14156113fa5750565b600181600481111561141c57634e487b7160e01b600052602160045260246000fd5b141561146a5760405162461bcd60e51b815260206004820152601860248201527f45434453413a20696e76616c6964207369676e617475726500000000000000006044820152606401610561565b600281600481111561148c57634e487b7160e01b600052602160045260246000fd5b14156114da5760405162461bcd60e51b815260206004820152601f60248201527f45434453413a20696e76616c6964207369676e6174757265206c656e677468006044820152606401610561565b60038160048111156114fc57634e487b7160e01b600052602160045260246000fd5b14156115555760405162461bcd60e51b815260206004820152602260248201527f45434453413a20696e76616c6964207369676e6174757265202773272076616c604482015261756560f01b6064820152608401610561565b600481600481111561157757634e487b7160e01b600052602160045260246000fd5b14156115d05760405162461bcd60e51b815260206004820152602260248201527f45434453413a20696e76616c6964207369676e6174757265202776272076616c604482015261756560f01b6064820152608401610561565b50565b606060006115e2836002611a35565b6115ed906002611a1d565b67ffffffffffffffff81111561161357634e487b7160e01b600052604160045260246000fd5b6040519080825280601f01601f19166020018201604052801561163d576020820181803683370190505b509050600360fc1b8160008151811061166657634e487b7160e01b600052603260045260246000fd5b60200101906001600160f81b031916908160001a905350600f60fb1b816001815181106116a357634e487b7160e01b600052603260045260246000fd5b60200101906001600160f81b031916908160001a90535060006116c7846002611a35565b6116d2906001611a1d565b90505b6001811115611766576f181899199a1a9b1b9c1cb0b131b232b360811b85600f166010811061171457634e487b7160e01b600052603260045260246000fd5b1a60f81b82828151811061173857634e487b7160e01b600052603260045260246000fd5b60200101906001600160f81b031916908160001a90535060049490941c9361175f81611a97565b90506116d5565b5083156106d05760405162461bcd60e51b815260206004820181905260248201527f537472696e67733a20686578206c656e67746820696e73756666696369656e746044820152606401610561565b80356001600160a01b03811681146117cc57600080fd5b919050565b6000602082840312156117e2578081fd5b6106d0826117b5565b600080604083850312156117fd578081fd5b611806836117b5565b9150611814602084016117b5565b90509250929050565b600080600060608486031215611831578081fd5b61183a846117b5565b9250611848602085016117b5565b9150604084013590509250925092565b600080600080600080600060e0888a031215611872578283fd5b61187b886117b5565b9650611889602089016117b5565b95506040880135945060608801359350608088013560ff811681146118ac578384fd5b9699959850939692959460a0840135945060c09093013592915050565b600080604083850312156118db578182fd5b6118e4836117b5565b946020939093013593505050565b600060208284031215611903578081fd5b5035919050565b6000806040838503121561191c578182fd5b82359150611814602084016117b5565b6000806040838503121561193e578182fd5b50508035926020909101359150565b60006020828403121561195e578081fd5b81356001600160e01b0319811681146106d0578182fd5b7f416363657373436f6e74726f6c3a206163636f756e74200000000000000000008152600083516119ad816017850160208801611a6b565b7001034b99036b4b9b9b4b733903937b6329607d1b60179184019182015283516119de816028840160208801611a6b565b01602801949350505050565b6020815260008251806020840152611a09816040850160208701611a6b565b601f01601f19169190910160400192915050565b60008219821115611a3057611a30611ae9565b500190565b6000816000190483118215151615611a4f57611a4f611ae9565b500290565b600082821015611a6657611a66611ae9565b500390565b60005b83811015611a86578181015183820152602001611a6e565b83811115610cb25750506000910152565b600081611aa657611aa6611ae9565b506000190190565b600181811c90821680611ac257607f821691505b60208210811415611ae357634e487b7160e01b600052602260045260246000fd5b50919050565b634e487b7160e01b600052601160045260246000fdfea264697066735822122099888cee9639c2750b7b66600d57e12f75585a4ee56bc24ece9882d1b54eeae564736f6c63430008040033a26469706673582212208171a439b2c030b518af3fb8ce65918f373c644e87ec1fa30dfdba17341bb1b064736f6c63430008040033",
  "devdoc": {
    "kind": "dev",
    "methods": {},
    "version": 1
  },
  "userdoc": {
    "kind": "user",
    "methods": {},
    "version": 1
  },
  "storageLayout": {
    "storage": [
      {
        "astId": 2908,
        "contract": "contracts/Faucet.sol:Faucet",
        "label": "admin",
        "offset": 0,
        "slot": "0",
        "type": "t_address"
      },
      {
        "astId": 2912,
        "contract": "contracts/Faucet.sol:Faucet",
        "label": "owners",
        "offset": 0,
        "slot": "1",
        "type": "t_mapping(t_address,t_bool)"
      },
      {
        "astId": 2717,
        "contract": "contracts/Faucet.sol:Faucet",
        "label": "created",
        "offset": 0,
        "slot": "2",
        "type": "t_mapping(t_string_memory_ptr,t_address)"
      },
      {
        "astId": 2720,
        "contract": "contracts/Faucet.sol:Faucet",
        "label": "tokens",
        "offset": 0,
        "slot": "3",
        "type": "t_array(t_address)dyn_storage"
      }
    ],
    "types": {
      "t_address": {
        "encoding": "inplace",
        "label": "address",
        "numberOfBytes": "20"
      },
      "t_array(t_address)dyn_storage": {
        "base": "t_address",
        "encoding": "dynamic_array",
        "label": "address[]",
        "numberOfBytes": "32"
      },
      "t_bool": {
        "encoding": "inplace",
        "label": "bool",
        "numberOfBytes": "1"
      },
      "t_mapping(t_address,t_bool)": {
        "encoding": "mapping",
        "key": "t_address",
        "label": "mapping(address => bool)",
        "numberOfBytes": "32",
        "value": "t_bool"
      },
      "t_mapping(t_string_memory_ptr,t_address)": {
        "encoding": "mapping",
        "key": "t_string_memory_ptr",
        "label": "mapping(string => address)",
        "numberOfBytes": "32",
        "value": "t_address"
      },
      "t_string_memory_ptr": {
        "encoding": "bytes",
        "label": "string",
        "numberOfBytes": "32"
      }
    }
  }
}